:020000040800F2
:10000000A8040020010100083F1200087511000833
:100010003D1200086D010008E9160008000000000C
:100020000000000000000000000000006312000853
:100030006F0100080000000061120008651200084E
:100040001B0100081B0100081B0100081B01000820
:100050001B0100081B0100081B0100081B01000810
:100060001B0100081B0100081B0100081B01000800
:100070001B0100081B0100081B0100081B010008F0
:100080001B0100081B0100081B0100081B010008E0
:100090001B0100081B0100081B0100081B010008D0
:1000A0001B0100081B0100081B0100081B010008C0
:1000B000011300081B0100081B0100081B010008B8
:1000C0001B0100081B0100081B0100081B010008A0
:1000D0001B0100081B010008DD1600081B010008B9
:1000E0001B0100081B0100081B010008DFF80CD0F1
:1000F00000F02AF80048004709170008A80400206B
:100100000648804706480047FEE7FEE7FEE7FEE7B1
:10011000FEE7FEE7FEE7FEE7FEE7FEE7B9120008AE
:10012000ED000008D2B201E000F8012B491EFBD21D
:1001300070470022F6E710B513460A4604461946F2
:10014000FFF7F0FF204610BD064C074D06E0E068C3
:1001500040F0010394E8070098471034AC42F6D30E
:10016000FFF7C8FF6817000888170008FEE7704708
:1001700010B590F821100024022903D004218163D6
:1001800001243DE001680A6822F00E020A6001685D
:100190000A6822F001020A601A4A0168914201D1FC
:1001A000012121E0174A1432914201D110211BE0B4
:1001B000144A2832914201D1891515E0114A3C3286
:1001C000914201D189140FE00E4A5032914202D17E
:1001D0004FF4803108E00B4A6432914202D14FF46F
:1001E000801101E04FF08071064A083A5160012108
:1001F00080F82110002180F82010416B01B1884760
:10020000204610BD080002402DE9F84FDFF890A10C
:1002100000220AF1040B144601274FF00F090BF1DD
:10022000040E00BF0B6807FA04F52B40AB4274D1F3
:10023000DFF870C14E68A6EB0C0866452BD00DDCCC
:10024000032E34D005DC36B3012E19D0022E2FD167
:100250001BE0112E16D0122E2AD119E0B8F5881FF6
:1002600019D006DCB8F5803F15D0B8F5801F1FD136
:1002700011E0B8F5001F0ED0B8F5041F18D10AE040
:10028000CA6815E0CA68121D12E0CA6808320FE099
:10029000CA680C320CE08A682AB1012A4FF00802C1
:1002A00003D0456104E0042202E0056100E0002281
:1002B000FF2B01D8064601E000F104064FEA840551
:1002C00001D9A5F12005D6F800C009FA05F82CEAF5
:1002D000080C02FA05F54CEA050CC6F800C04D689A
:1002E000ED0057D5304DAE6946F00106AE61AD69FF
:1002F00024F0030605F0010500952C4D06EB050CD6
:10030000DCF80850A6074FEA167809FA08F6B54354
:10031000274EB04202D1002610E03BE0254EB0420D
:1003200001D101260AE0244EB04201D1022605E0A7
:10033000224EB04201D1032600E0042606FA08F658
:100340002E43CCF808604D68DAF80060ED0355469E
:1003500001D51E4300E09E432E604D68DBF800602F
:10036000AD035D4601D51E4300E09E432E604D68FF
:10037000DEF80060ED02754601D51E4300E09E43A5
:100380002E604D68AD020E4D2E6801D51E4300E073
:100390009E432E60641C102CFFF444AFBDE8F88F20
:1003A0000004014000001110001002400000014054
:1003B00000080140000C0140001001400014014001
:1003C0000C0401400AB1016170470904FBE7000019
:1003D00001488068704700001400002002488168CE
:1003E000027811448160704714000020074810B55E
:1003F000016841F010010160032000F073F8002053
:1004000000F006F800F024F8002010BD00200240A3
:1004100070B50D4D04464FF47A712878B1FBF0F0B9
:100420000A490968B1FBF0F000F0FCFA48B9102C59
:1004300007D200222146501E00F034F800206C60E4
:1004400070BD012070BD00001400002020000020BD
:100450000C4808B5816941F001018161816901F0B1
:1004600001010091C16941F08051C161C06900F092
:10047000805000900448416821F0E06141F0007133
:10048000416008BD001002400000014000F01F0262
:10049000012191404009800000F1E020C0F80011E6
:1004A00070470000F0B40E4B1B680C46C3F30223E8
:1004B000C3F10705042D00D90425191D072901D210
:1004C000002300E0DB1E012606FA05F1491E21404B
:1004D00099409E40761E16403143F0BC00F0B0BEFD
:1004E0000CED00E0064900F0070208684FF6FF0334
:1004F000184040EA0220034A104308607047000099
:100500000CED00E00000FA052DE9F047DFF854811A
:1005100005460E46D8F8000000F00700B0420CD2A5
:10052000D8F8001021F007013143C8F80010D8F8BE
:10053000000000F00700B0426FD128684A4C8107E4
:1005400012D5400703D5606840F4E0606060287809
:10055000000703D5606840F4605060606068A96877
:1005600020F0F000084360602878C00744D0686835
:10057000012816D02168022816D0890700294CDAF4
:10058000616821F0030101436160FFF721FF6968A1
:10059000074641F2883001290ED00229814618D041
:1005A00026E021688903E9E78901E7E7FFF710FF03
:1005B000C11B494501D918E081466068C0F381003C
:1005C0000128F3D118E000BFFFF702FFC11B494526
:1005D0000BD86068C0F381000228F5D10CE000BFA1
:1005E000FFF7F6FEC11B494502D90320BDE8F0879D
:1005F000606810F00C0FF3D1D8F80010404601F0FD
:100600000701B1420BD9016821F0070131430160B4
:10061000006800F00700B04201D00120E6E728782A
:10062000400705D56068E96820F4E0600843606031
:100630002878000706D56068296920F4605040EAF0
:10064000C100606000F036F86168084AC1F3031128
:10065000515CC840064908600020FFF7D9FE002021
:10066000C4E70000002002400010024050170008BC
:10067000200000200448054900684968044AC1F385
:100680000221515CC8407047200000200010024049
:10069000601700080448054900684968044AC1F326
:1006A000C221515CC8407047200000200010024069
:1006B0006017000812A185B00FC98DE80F0014A0C3
:1006C000144A006804905168134801F00C03042B8D
:1006D00010D0082B0ED1C1F38343C9031DF80300CA
:1006E0000AD5516804AAC1F34041515C0A4A5043FB
:1006F000B0FBF1F005B0704708494843FAE7000045
:1007000002030405060708090A0B0C0D0E0F101052
:10071000010200000010024000127A0000093D00B2
:100720002DE9F84F04460078B94DC00748D06868F5
:10073000C0F38100012807D06868C0F38100022857
:1007400009D16868C00306D52868800338D5606879
:1007500000286FD034E06068B0F5803F0BD010B156
:10076000B0F5A02F11D0286820F4803028602868C8
:1007700020F4802002E0286840F48030286060681F
:1007800088B1FFF725FE064609E0286840F480207E
:100790002860F0E7FFF71CFE801B642875D82868E6
:1007A0008003F7D50CE0FFF713FE064605E000BF17
:1007B000FFF70EFE801B6428F0D828688003F7D46A
:1007C0002078944E80074FF001094FF000083BD588
:1007D000686810F00C0F07D06868C0F38100022829
:1007E00009D16868C00306D42868800714D5206939
:1007F00001281FD110E02069B0B1C6F80090FFF7C2
:10080000E7FD074605E000BFFFF7E2FDC01B022839
:10081000C4D828688007F7D52868616920F0F800F7
:1008200040EAC10028600FE0C6F80080FFF7D0FD65
:10083000074606E0E9E000BFFFF7CAFDC01B02283B
:1008400023D828688007F7D4207800072CD5724871
:10085000A169D9B1C0F80090FFF7BAFD074604E0DE
:10086000FFF7B6FDC01B02280FD8686A8007F7D5CE
:100870006A484FF4FA510068B0FBF1F0009000BFF5
:100880000098411E0091FAD20EE080E0C0F800808E
:10089000FFF79EFD074604E0FFF79AFDC01B022804
:1008A00075D8686A8007F7D42078400760D5E86972
:1008B0000027C00008D4E86940F08050E861E8698A
:1008C000012700F08050009055480168C90513D4F5
:1008D0000168834641F480710160FFF779FD82462B
:1008E00006E000BFFFF774FDA0EB0A0064284ED8B5
:1008F000DBF80000C005F5D5E06801280AD008B192
:10090000052813D0286A20F001002862286A20F008
:10091000040002E0286A40F001002862E06841F229
:10092000883B98B1FFF754FD82460BE0286A40F0FF
:1009300004002862EEE700BFFFF74AFDA0EB0A01C2
:1009400059455AD8286A8007F6D50CE0FFF740FDD4
:10095000824605E0FFF73CFDA0EB0A0159454CD863
:10096000286A8007F6D41FB1E86920F08050E8615A
:10097000E06988B36968C1F38101022945D0022882
:10098000C6F8608004D0FFF723FD044638E034E069
:10099000FFF71EFD074604E0FFF71AFDC01B022803
:1009A0002BD828688001F7D4206AB0F5803F05D1A4
:1009B0006868A16820F4003008436860D4E9080141
:1009C0000843696821F4741108436860C6F86090B0
:1009D000FFF7FEFC044606E015E000BFFFF7F8FC59
:1009E000001B022809D828688001F7D50BE000BF5A
:1009F000FFF7EEFC001B022802D90320BDE8F88FA8
:100A000028688001F4D40020F8E70120F6E7000010
:100A100000100240000042428004424220000020B8
:100A20000070004010B5401EB0F1807F01D301205E
:100A300010BD4FF0E02460610F21601700F000FC52
:100A40000020A06107202061002010BD7047704782
:100A500030B590F83C20012A20D0012280F83C20BB
:100A6000022380F83D3003685C6824F070045C6009
:100A700003685C680D682C435C6003689C6824F024
:100A800080049C6003689C6849680C439C6080F803
:100A90003D20002180F83C10084630BD022030BDCA
:100AA00010B5040003D094F83D0010B107E0012018
:100AB00010BD002084F83C00204600F00DF8022014
:100AC00084F83D00211D206800F020FC012084F8FE
:100AD0003D00002010BD000008B50068B0F1804F57
:100AE00012D10A48C16941F00101C161C069002207
:100AF00000F00100009011461C20FFF7D3FCBDE878
:100B000008401C20FFF7C2BC08BD000000100240D6
:100B10000168CA6842F00102CA600068016841F0D9
:100B2000010101600020704770B5044690F83C0058
:100B3000012817D0012584F83C50022084F83D009C
:100B40002068826822F0770222F47F42826008687F
:100B5000502837D00DDC202859D005DC88B3102868
:100B600041D151E0022070BD302853D040283AD105
:100B70003FE060282ED070280BD0B0F5805F03D006
:100B8000B0F5005F2FD110E02068816821F00701E7
:100B900015E0CB68D1E90121206800F0EDFB216868
:100BA000886840F0770088601DE0CB68D1E90121BA
:100BB000206800F0E1FB2068816841F48041816099
:100BC00011E01EE0CA684968206800F0E7FB502188
:100BD000206806E0CA684968206800F0F0FB6021E0
:100BE000206800F0D3FB84F83D50002084F83C00DE
:100BF00070BDCA684968206800F0D0FB40212068B9
:100C0000EFE700212068ECE710212068E9E72021C8
:100C10002068E6E730212068E3E7704770B50446B6
:100C2000006801694FF00005C943890715D4C16800
:100C3000C943890711D4E91E01610120207720688A
:100C400080698007204602D0FFF7E7FF04E000F04C
:100C500098F8204600F096F8257720680169C94386
:100C6000490717D4C168C943490713D46FF0040179
:100C70000161022020772068806910F4407F2046BF
:100C800002D0FFF7CAFF04E000F07BF8204600F036
:100C900079F8257720680169C943090716D4C16826
:100CA000C943090712D46FF00801016104202077BD
:100CB0002068C0698007204602D0FFF7AEFF04E03D
:100CC00000F05FF8204600F05DF8257720680169A4
:100CD000C943C90617D4C168C943C90613D46FF004
:100CE00010010161082020772068C06910F4407F5E
:100CF000204602D0FFF791FF04E000F042F82046C2
:100D000000F040F8257720680169C943C90708D178
:100D1000C168C943C90704D1891E0161204600F09A
:100D200033F820680169C943090609D4C168C94379
:100D3000090605D46FF0800101612046FFF786FEA9
:100D400020680169C943490609D4C168C9434906F5
:100D500005D46FF040010161204600F043F820689F
:100D60000169C94389060BD4C168C943890607D400
:100D70006FF0200101612046BDE87040FFF767BEBB
:100D800070BD70477047000070B51349006809686E
:100D900088421FD1114C124DE07801280AD16078A9
:100DA000401CC0B26070042804D901229103284677
:100DB000FFF708FBA07901280CD12079401CC0B2B4
:100DC0002071042806D92846BDE870400122D103CD
:100DD000FFF7F8BA70BD00002400002000000020DA
:100DE000001001407047704770B5026804461068F3
:100DF000D168536910F00F0F50D003F0010501F4D2
:100E0000907635435DD0C20705D0CA0503D5E26BA5
:100E100042F00102E263420705D5DA0703D0E26B34
:100E200042F00202E263820705D5DA0703D0E26BE3
:100E300042F00402E263020705D5DA0703D0E26B51
:100E400042F00802E263E26B002A33D0800604D548
:100E5000880602D5204600F0DAFA20684069E16B86
:100E6000C0F38010090700D428B3204600F0C1FA6F
:100E70002068416949061AD5416921F04001416164
:100E8000606BA0B11B494163606BFFF771F90028EB
:100E900010D0606B416BBDE870400847830610D5E9
:100EA0008B060ED52046BDE8704000F0B0BA204653
:100EB000FFF799FF70BD2046FFF795FF0020E06324
:100EC00070BD030606D50B0604D52046BDE870406C
:100ED00000F0A0BB4006F3D54806F1D5D168204606
:100EE00021F04001D160202184F8391000F041F94F
:100EF00070BD0000E313000870B5040004D094F83E
:100F00003900002510B106E0012070BD84F838508A
:100F1000204600F023F8242084F839002068C168B6
:100F200021F40051C160204600F0BCFA206801693C
:100F300021F4904101612068416921F02A01416159
:100F40002068C16841F40051C160E563202084F845
:100F5000390084F83A00002070BD000030B585B03B
:100F60000024009401940294039400681849884274
:100F70002BD11848C16941F40031C161C16901F444
:100F800000310491816941F0040181618069124D51
:100F900000F004000490042000900220019003203F
:100FA000039069462846FFF72FF90820CDE9000491
:100FB000694628460294FFF727F9002211462620A9
:100FC000FFF770FA2620FFF761FA05B030BD000088
:100FD00000440040001002400008014090F83A3000
:100FE000202B22D1F9B1F2B190F83830012B1CD06E
:100FF00081628285C2850021C163222280F83A2065
:1010000080F838100168CA6842F48072CA600168CA
:101010004A6942F001024A610068C16841F020015A
:10102000C160002070470120704702207047000017
:101030002DE9F0411D4900680968884234D1012238
:101040001B491A48FFF7CAFF194C002501262078D2
:10105000184F312811D164230422E11D134800F0F8
:101060002BF80022B1033846FFF7ACF90F48E670C1
:101070004038FFF74DFD6570A5702078322813D1F8
:101080000B49642304220C31084800F015F80022B3
:101090004FF400413846FFF795F90448A6714038EF
:1010A000FFF736FD25716571BDE8F0816400002011
:1010B00000000020001001402DE9F843044690F89C
:1010C00039001F4616460D46202850D1A5B19EB1C5
:1010D00094F8380001284AD0012084F838004FF0F5
:1010E0000008C4F83C80212084F83900FFF770F92B
:1010F000A6848146E68426E00120BDE8F883E08CE2
:10110000401EE084A0684B46B0F5805F4FF00002BF
:101110004FF080012046009703D000F0ACFAE8B908
:101120000DE000F0A8FAC8B928882168C0F30800CB
:101130004860206908B16D1C05E0AD1C03E0216822
:1011400015F8010B4860E08C0028D8D14B460022EE
:1011500040212046009700F08EFA08B10320CCE72A
:10116000202084F8390084F838800020C5E7022068
:10117000C3E77047FEE7000070B586B0002418484A
:101180000094019402940394816941F010018161FB
:10119000816901F010010491816941F020018161B0
:1011A000816901F020010491816941F004018161AC
:1011B00080690C4E00F004004FF440450490012279
:1011C00029463046FFF7FEF801200095CDE90104DD
:1011D0000320039069463046FFF716F806B070BD4D
:1011E000001002400010014010B586B000241248E3
:1011F000009401940294039404944FF08041059468
:10120000016048F6A041C0E9011440F2CF71C0E985
:1012100003148461FFF744FC4FF48050009069464A
:101220000548FFF781FC049404A903480594FFF7DF
:101230000FFC06B010BD000024000020FEE7704740
:101240000907090E002806DA00F00F0000F1E0207F
:1012500080F8141D704700F1E02080F800147047FA
:1012600070477047FFF7BAB830B58FB0282168468D
:10127000FEF75FFF14210AA8FEF75BFF01210804B7
:10128000CDE900100024029402250491CDE9075015
:101290004FF4E01009906846FFF742FA0F20CDE9BD
:1012A0000A056802CDE90C4002210AA80E94FFF756
:1012B0002BF90FB030BD00000D48016841F001016D
:1012C000016041680B4A1140416001680A4A1140BF
:1012D0000160016821F480210160416821F4FE0170
:1012E00041604FF41F0181600449C00308607047EA
:1012F000001002400000FFF8FFFFF6FE08ED00E0DE
:101300000148FFF78BBC000024000020F0B5026804
:10131000164B174C174D4FF08047984205D0B842F6
:1013200003D0A04201D0A84203D122F070064A683F
:101330003243984205D0B84203D0A04201D0A8421F
:1013400003D122F44074CA68224322F080044A691F
:10135000224302608A68C2620A688262984201D1AE
:101360000969016301214161F0BD0000002C0140C9
:10137000000400400008004010B5846842EA0322DF
:1013800024F47F440A432243826010BD826822F025
:1013900070020A4342F007018160704710B5036A8A
:1013A000046A24F001040462846924F0F00444EA2D
:1013B000021423F00A020A438461026210BD10B5D0
:1013C000036A23F0100303628369046A23F4704301
:1013D00043EA023224F0A00343EA01118261016270
:1013E00010BD10B5406A0021C185C184FFF7FBFC28
:1013F00010BD0168CA6822F49072CA6001684A6927
:1014000022F001024A61202180F83A10704710B59D
:1014100090F83A10222901D0022010BD8168B1F560
:10142000805F11D00169002901681FD0496801F06F
:101430007F03816A4A1C82620B70C18D491E0904B8
:10144000090CC18518D02BE00269816A002A026864
:10145000526805D0D2B20A80816A491C8162ECE7E9
:10146000C2F308020A80816A891CF7E74A68816A28
:101470004B1C83620A70E0E70168CA6822F0200210
:10148000CA600168CA6822F48072CA6001684A6949
:1014900022F001024A61202180F83A10FFF7C8FDCE
:1014A000002010BD2DE9F041044600680169E268A2
:1014B00021F44051114301612169A0680843616929
:1014C00008432168CA6841F20C639A430243CA6028
:1014D00020684169A26921F44071114341614C497E
:1014E00020686425322688423CD1FFF7D3F800EB10
:1014F000C00101EB001061688900B0FBF1F7FFF754
:10150000C9F800EBC00101EB00106168B04689002A
:10151000B0FBF1F0B0FBF5F06FF01801484307EBBA
:10152000800106EB0110B0FBF5F000F0F006FFF7CC
:10153000B1F800EBC00101EB001061688900B0FB5D
:10154000F1F0B0FBF5F006EB0016FFF7A3F800EBA7
:10155000C00101EB001061688900B0FBF1F7FFF7F3
:1015600099F83BE0FFF786F800EBC00101EB0010B3
:1015700061688900B0FBF1F7FFF77CF800EBC00170
:1015800001EB00106168B0468900B0FBF1F0B0FBE0
:10159000F5F06FF01801484307EB800106EB0110EE
:1015A000B0FBF5F000F0F006FFF764F800EBC001C7
:1015B00001EB001061688900B0FBF1F0B0FBF5F0C1
:1015C00006EB0016FFF756F800EBC00101EB001028
:1015D00061688900B0FBF1F7FFF74CF800EBC00140
:1015E00001EB001061688900B0FBF1F0B0FBF5F091
:1015F0006FF01801484307EB800108EB0110B0FBC6
:10160000F5F0216800F00F0030448860BDE8F081FB
:101610000038014090F83910212901D0022070478C
:101620008168B1F5805F016A0BD04A1C02620268D2
:1016300009785160C18C491E0904090CC1840ED07F
:1016400017E009880268C1F30801516001690029A7
:10165000016A02D0491C0162ECE7891CFBE70168C2
:10166000CA6822F08002CA600068C16841F0400187
:10167000C160002070472DE9F041984617460E469C
:101680000446069D1DE0681C1BD02DB1FEF7A0FE90
:10169000A0EB0800A84214D92068C16821F4D071D9
:1016A000C1602068416921F001014161202084F876
:1016B000390084F83A00002084F838000320BDE89F
:1016C000F0812068006836EA000004D00020B842AB
:1016D000D9D00020F3E70120F9E700000148FFF727
:1016E00083BB000064000020FEE702E008C8121F70
:1016F00008C1002AFAD170477047002001E001C1FB
:10170000121F002AFBD17047FEF770FEFFF7ACFDF9
:10171000FFF732FD0C480B490C2201604FF41651C3
:10172000416000218160C160C0E904128161C16132
:10173000FFF7E2FBFFF758FD012204490248FFF7DB
:101740004DFCFEE700440040640000200000002043
:101750000000000000000000010203040607080961
:1017600000000000010203048817000800000020A8
:1017700024000000EA160008AC170008240000202E
:1017800084040000FA1600080000000000000000B9
:10179000110C310000220C3200000000010000009A
:0C17A000100000000000000000A24A043D
:04000005080000ED02
:00000001FF
